:020000040800F2
:1000000000000220552400089D2400089D240008BB
:100010009D2400089D2400089D2400080000000085
:100020000000000000000000000000009D24000807
:100030009D240008000000009D2400089D24000865
:100040009D2400089D2400089D2400089D2400088C
:100050009D2400089D2400089D2400083D020008FE
:100060009D2400089D2400089D2400089D2400086C
:100070009D2400089D2400089D2400089D2400085C
:100080009D2400089D2400089D2400089D2400084C
:100090009D2400089D2400089D2400089D2400083C
:1000A0009D2400089D2400089D2400089D2400082C
:1000B0009D2400089D2400088D1500089D2400083B
:1000C0009D2400089D2400089D2400089D2400080C
:1000D0009D2400089D240008250800089D24000890
:1000E0009D2400089D2400089D2400089D240008EC
:1000F0009D2400089D2400089D2400089D240008DC
:100100009D2400089D2400089D2400089D240008CB
:100110009D2400089D2400089D2400089D240008BB
:100120009D2400089D2400089D2400089D240008AB
:100130009D2400089D2400089D2400089D2400089B
:100140009D2400089D2400089D2400089D2400088B
:100150009D2400089D2400089D2400089D2400087B
:100160009D2400089D2400089D2400089D2400086B
:100170009D2400089D2400089D2400089D2400085B
:080180009D2400089D240008E5
:1001880010B5054C237833B9044B13B10448AFF3C9
:1001980000800123237010BD4C04002000000000E3
:1001A800F028000808B5034B1BB103490348AFF317
:1001B800008008BD0000000050040020F02800085E
:1001C800154B002B08BF134B9D46A3F5803A002121
:1001D8008B460F461348144A121A02F0E7F90F4BE0
:1001E800002B00D098470E4B002B00D098470020DA
:1001F800002104000D000D48002802D00C4802F030
:100208009DFA02F0AFF92000290001F073FC02F01A
:1002180099F900BF0000080000000000000000007D
:10022800000000004C040020B80600204527000804
:1002380051270008084B5B699B0709D5074B1A78BB
:100248003AB1012A04BF00221A70034B02225A61F4
:10025800704701221A70F8E7003C0140680400204A
:1002680010B5104C6378DBB2022B10D0032B05D0ED
:10027800012B00D010BD0223637010BD60684CF2E2
:10028800503100F059F90028F4D1607010BD064BC8
:100298001B699B07EED50323637000F047F9606084
:1002A80010BD00BF68040020000C02400028B8BF41
:1002B8004042092817DDA0F10A03592B11D9A0F1F2
:1002C8006403B3F5617F10D3A0F57A7242F2273345
:1002D8009A420CD9A0F51C50074B1038984208D9FF
:1002E80070470220704701207047032070470420A0
:1002F80070470520704700BF8F5F010038B5141E96
:10030800C0B2C9B223DB092C19DDA4F10A024B1CC7
:10031800592ADBB23BD9A4F16402B2F5617F3BD321
:10032800A4F57A7542F2273295423AD9A4F51C52BF
:100338001E4D103AAA4296BF04391946C9B200F0B8
:1003480045FE21461A48BDE8384000F0D3BE14F1F6
:10035800090F03DB0123C91AC9B2F0E76FF00903DB
:100368001B1B592B16D96FF063031B1BB3F5617F59
:1003780015D3104B42F227321B1B934214D90E4B54
:100388000A4A1B1B934294BF05230023E3E7013964
:10039800C9B2D4E70223DEE70239C9B2CFE70323A3
:1003A800D9E70339C9B2CAE70423D4E78F5F01004C
:1003B800E028000818FCFFFFF0D8FFFF1749184A8B
:1003C8000B6C43F0400330B40B64532584234FF483
:1003D8007A741585D4621380938A43F0010393825B
:1003E800138843F00103138050B1138ADB07FCD54F
:1003F800138A23F001031B041B0C01381382F4D168
:100408000749064A0B8823F001031B041B0C0B80C9
:10041800136C23F04003136430BC7047003802406B
:10042800001800401749184A0B6C43F0400330B4D9
:100438000B640025842354241585D4621380938A81
:1004480043F001039382138843F00103138050B1F2
:10045800138ADB07FCD5138A23F001031B041B0C4A
:1004680001381382F4D10849064A0B8823F00103A6
:100478001B041B0C0B80136C23F04003136430BC6B
:10048800704700BF003802400018004009490A4B75
:100498000A6C30B442F008020A6453254FF0FF3466
:1004A800002284201D85DC62188030BC9A805A6244
:1004B800704700BF00380240000C0040044B9A8A85
:1004C80042F001029A821A8842F001021A807047AB
:1004D800000C0040044A506A138823F001031B04EF
:1004E8001B0C1380704700BF000C00400E490A6CBB
:1004F8004FF0804342F0010230B484200A644AF28B
:100508000F4500224FF0FF341D85DC6218809A8069
:100518005A629A8A42F001029A821A8842F00102CB
:100528001A8030BC704700BF003802404FF080434B
:10053800586A4008704700BF4FF080435B6A5B0809
:10054800834205D30844984294BF00200120704795
:10055800C043184488422CBF00200120704700BFC8
:10056800114A124B116B41F0010110B41163116C67
:100578000F4C41F4003111641A6842F0A0021A606D
:100588001A6A42F4EE421A629A6842F020029A60AD
:100598009A6880B242F0800242F208019A60208193
:1005A800A1815DF8044B704700380240000002400A
:1005B80000440040084A0949938923F400531B0466
:1005C8001B0C402093814860938943F4005343F007
:1005D80024039381704700BF0044004000E100E01D
:1005E800064B074A98890749024040209A81C1F87A
:1005F80084009A8942F400529A817047004400406E
:10060800DFDFFFFF00E100E0034A13885B06FCD54B
:1006180080B29080704700BF004400400C4A30B45C
:10062800441E0D2500F2FF3014F8011F49B113884C
:100638005B06FCD589B2918023780A2B03D08442CB
:10064800F2D130BC704713885B06FCD59580F6E77D
:10065800004400400FB42DE9F0498DB014AB53F8B5
:10066800046B0193327862B300246A4D6A4F2346C3
:1006780031464FF00D08252A14D133445A78CAB1AF
:10068800623A162A00F29980DFE802F07F756497D3
:100698004297979797979797979797979739979795
:1006A800979726002B885806FCD592B2AA800B781B
:1006B8000A2B0BD00134A4B22346325D3119002A2B
:1006C800D9D10DB0BDE8F04904B070472B885B065E
:1006D800FCD5A5F80480EDE79B78019A622B02F11E
:1006E800040112686FD0682B00F08680772B04BF56
:1006F8000134A4B2CDE900214FF4006055E0019B1C
:100708001A1D18680192FFF789FF0134A4B2D1E7D6
:10071800019B073323F00703D3E900BC083307EA3A
:10072800CC02BBF1000F42EA5B7201934FF000006C
:100738007CF100030CF08041B8BF42F0004250EA5F
:10074800010300923CD0009B43F0804300934FF498
:1007580080702AE09B78019A622B02F104011268EA
:100768003ED0682B4FD0772B04BF0134A4B2CDE91B
:100778000021202019E0019B191D1A7801912B886E
:100788005B06FCD593B2AB80BFE79B78019A622BDE
:1007980002F1040112681DD0682B27D0772BCDE910
:1007A800002104BF0134A4B2042002AA694600F063
:1007B8000DF902A8FFF732FFA7E700230093A4E78B
:1007C8004FF48070F1E70134A4B2CDE900214FF471
:1007D8000070EAE70134A4B2CDE900210120E4E782
:1007E8000134A4B2CDE900210820DEE70134A4B227
:1007F800CDE900210220D8E70134A4B2CDE90021D7
:100808004FF48060D1E70134A4B2CDE90021102073
:10081800CBE700BF00440040F8FFFF3F0A4B1A88AF
:10082800920610D5094A9988138809489BB2C9B21B
:10083800C154138801339BB213801388B3F5007F2A
:1008480024BF002313807047004400407404002034
:10085800940400200849094A0B88128801339BB286
:10086800B3F5007F28BF0023934204D0044A05480B
:10087800D25C82800B807047040000207404002042
:1008880094040020004400402349244A0B8810881F
:1008980001339BB2B3F5007F28BF002383421AD0EF
:1008A80030B41F4CE05C1B280BD0E05C5B2814D0F4
:1008B8009078C0B2022817D0002090700B8030BC0E
:1008C8007047957805F0FF00002DEED10124947053
:1008D80030BC0B8070470020704790780128E7D122
:1008E800022090700020E9E7E55C412D0FD0E55C1F
:1008F800422D07D0E05C43280BD0E05C442814BFAD
:1009080000200420002494700B8030BC7047012024
:10091800F8E70320F6E700BF040000207404002075
:1009280094040020F0B40D4A0D4F00F10A0530265A
:10093800914205F8016D08D3312400E01C46891A5C
:10094800631C9142DBB2F9D22C70A7FB0232A84299
:100958004FEAD202ECD1F0BC704700BF00CA9A3B04
:10096800CDCCCCCC70B400F10A06002416F8013DB9
:10097800302BE5B21FD00C8813550B886C1C013343
:10098800E4B29BB20A2C0B8011D0C5F10805061BF6
:10099800EDB2751BC4F109040835044414F80109C3
:1009A800D0540B8801339BB2A5420B80F6D10021AD
:1009B800D15470BC7047092C01D00134D6E708889F
:1009C80013540B8801339BB20B80F0E72DE9F04FED
:1009D80087B00023102817461370ADF80A3000F0CE
:1009E8004A8120D9B0F5007F4BD07AD9B0F5806F15
:1009F80061D0B0F5006F13D10B6802F108041B0F2A
:100A0800092BD8B200F130038ABF37301370107049
:100A18000B6801321B0194420B60F0D100233B723A
:100A280007B0BDE8F08F022800F00E8117D904281E
:100A380040F01E810B6802F1200030243125002B84
:100A4800B4BF157014700B6801325B0090420B60E4
:100A5800F5D1002387F8203007B0BDE8F08F0128D2
:100A6800DED10B6802F10800302531241E064CBF88
:100A7800147015700B6801325B0090420B60F5D161
:100A8800CCE70B68C3F30313092B8CBF3733303320
:100A980013700B681A0103F00F03092B94BF30334E
:100AA80037330A607B700B6800221B010B60BA7039
:100AB80007B0BDE8F08F0B68141DC3F30333092B8F
:100AC80003F130008ABF3733107013700B6801329E
:100AD8001B01A2420B60F0D100233B7107B0BDE8B7
:100AE800F08F202800F0C780B0F5807F98D191ED75
:100AF800007AB5EEC07AF1EE10FA06D52D22012360
:100B0800B1EE477A3A70ADF80A30F7EE007AB4EEF3
:100B1800E77AF1EE10FA00F1D68040F3EA8000247B
:100B2800B2EE046A00E01C4667EE867A631CB4EEF7
:100B3800E77AF1EE10FA9BB2F5DCC7EE866A4FF061
:100B4800200B0DF116086E48DFF8BCC143460DF1C5
:100B58000C093026C7EE267A9FED6A7AFCEEE76A22
:100B680016EE901AF8EE666A77EEE67A67EE877AFE
:100B7800FCEEE77A17EE905A884203F8016D06D822
:100B88003022091A01328142D2B2FAD21A70ACFB71
:100B9800002099454FEAD000EED10DF10A0A5146DE
:100BA8003A4648460193FFF7DDFE5549DFF858E11C
:100BB800019B46464FF0300CA94206F801CD08D8F3
:100BC800312000E010466D1A421C8D42D2B2F9D293
:100BD8003070AEFB01219E424FEAD101ECD12E23A9
:100BE8003A46514648468DF80F30FFF7BBFEBDF830
:100BF8000A20531C65219BB2BBF12D0FB954ADF8E7
:100C08000A3004D1023207F803B0ADF80A203C4A92
:100C18003D483021A24208F8011D07D83023A41A04
:100C280001339442DBB2FAD288F80030A0FB0232DA
:100C380046454FEAD202EDD13A4651464846FFF7BB
:100C480091FE07B0BDE8F08F0B6802F11000302567
:100C580031241B044CBF147015700B6801325B0003
:100C680090420B60F5D100233B7407B0BDE8F08FCC
:100C780008287FF4D5AE0A68002A07DA2D233B70CE
:100C88000A68012352420A60ADF80A301C491E4E18
:100C98000DF10C090DF116043025914204F8015D9F
:100CA80008D8312000E01846521A431C8A42DBB2A9
:100CB800F9D22070A6FB0131A1454FEAD101ECD150
:100CC8000DF10A0AB8E7DFED116AB4EEE67AF1EE43
:100CD80010FA13D5F0EE667A012466EEA76A01349D
:100CE800B4EEE67AF1EE10FAA4B2F6D44FF02D0B7A
:100CF80027E74FF6FF74DFED056A20E70124F5E7E3
:100D080000CA9A3B00007A44CDCCCCCCCDCCCC3DAB
:100D18001349144A086B144B40F0010070B408637F
:100D2800486C124C40F480704864116841F00C0122
:100D38001160D16821F00C01D16001254FF40066E3
:100D480000204FF440324FF400715E60D860D862E2
:100D58005D63996062609A682A439A6070BC7047C4
:100D680000380240000002400020014000230140FA
:100D7800054A936843F08043936013689B07FCD54A
:100D8800D06C80B2704700BF002001400F49104B63
:100D98004A6C104842F48072F0B44A644FF4006719
:100DA8004FF4E016002510244FF440324FF4007140
:100DB8005F60DE60DD625C63996042609A6842F061
:100DC80001029A600A20F0BCFFF72CBB00380240F1
:100DD800002001400023014019491A4A4B6843F496
:100DE80000034B60936843F08043936013689B074C
:100DF800FCD5D16C144B124889B240F6B83202FBCC
:100E080001F2A3FB0213D21A03EB5203DB0AA3F588
:100E18003E7307EE903AF8EE677AF0EE046A87EED2
:100E2800A67A436823F400034360F3EE097A77EE69
:100E3800277AFCEEE77A17EE903A98B2704700BF2F
:100E480000230140002001400101100008B5642082
:100E5800FFF7B4FA3C214E2000F014FB38214E2055
:100E680000F010FB0A20FFF7A9FA3C214E2000F001
:100E780009FB38214E2000F005FB0A20FFF79EFAF7
:100E88003C214E2000F0FEFA38214E2000F0FAFAFC
:100E98002C214E2000F0F6FA28214E2000F0F2FA1C
:100EA8002C214E2000F0EEFA28214E2000F0EAFA1C
:100EB800CC214E2000F0E6FAC8214E2000F0E2FADC
:100EC8000520FFF77BFA0C214E2000F0DBFA082101
:100ED8004E2000F0D7FA8C214E2000F0D3FA88215A
:100EE8004E2000F0CFFA0520FFF768FA0C214E20BB
:100EF80000F0C8FA08214E2000F0C4FA1C214E2048
:100F080000F0C0FA18214E2000F0BCFA0520FFF7C7
:100F180055FA0C214E2000F0B5FA08214E2000F0B9
:100F2800B1FACC214E2000F0ADFA4E20C82100F0D5
:100F3800A9FA4FF47A70BDE80840FFF73FBA00BF3E
:100F4800214A138843F480731380938AD907FCD508
:100F58004E231D4913828B8A9B07FCD50B8B1A4B9A
:100F6800411E00F2FF3011F8012F22B322F00F02C8
:100F780042F00D021A829A8A1206FCD50A7822F0EB
:100F88000F0242F009021A829A8A1206FCD50A78E0
:100F98001201D2B242F00D021A829A8A1206FCD5C8
:100FA8000A781201D2B242F009021A829A8A12060B
:100FB800FCD58142D7D1044A938A1B06FCD51388F5
:100FC80043F400731380704700580040012830B480
:100FD8003FD0022837D0214B1A7821490B8843F497
:100FE80080730B808B8AD807FCD54E231C480B8254
:100FF800838A9B07FCD502F0700141F08C03184CE2
:10100800058B0382A38A1D06FCD541F08803144989
:1010180023828B8A1806FCD5120102F0F00242F0F6
:101028000C030F480B82838A1906FCD542F008028C
:101038000B4902828B8A1B06FCD50B8843F400738C
:101048000B8030BC704701F13F02044BD2B21A70DA
:10105800C3E74A1E014BD2B21A70BEE777040020DC
:10106800005800401B4A138843F4807330B413803F
:10107800938AD907FCD54E23164913828B8A9B077E
:10108800FCD500F0F00242F00D03124C0D8B0B82E0
:10109800A38A1D06FCD542F009030E4A2382938ACF
:1010A8001906FCD5000100F0F00040F00D030949D5
:1010B80013828B8A1A06FCD540F00900054A08827B
:1010C800938A1B06FCD5138843F40073138030BC45
:1010D800704700BF0058004050B138B5054600249D
:1010E80001342020E4B2FFF7BDFFA542F8D138BD96
:1010F800704700BF0FB42DE9F0418CB012AB53F824
:10110800046B0193307848B30024614D2346374679
:10111800252828D133445A78CAB1623A162A00F2EF
:101128008A80DFE802F0706C5B883A888888888853
:10113800888888888888880C888888882800019BFF
:101148001A1D18680192FFF7FBFE0134A4B201349E
:10115800A4B22346305D37190028D9D10CB0BDE8B8
:10116800F04104B07047FFF77DFF38780A28EED1C8
:10117800FFF778FFEBE79B78019A622B02F10401F5
:1011880012685ED0682B75D0772B04BF0134A4B2E7
:10119800CDE900214FF4006045E0019B073323F0BF
:1011A8000703D3E90078083305EAC802002F42EAAA
:1011B800577201934FF0000078F1000308F0804166
:1011C800B8BF42F0004250EA0103009236D0009BBB
:1011D80043F0804300934FF4807024E09B78019A99
:1011E800622B02F10401126838D0682B49D0772BA2
:1011F80004BF0134A4B2CDE90021202013E0019BF3
:1012080004330193A1E79B78019A622B02F1040150
:1012180012681DD0682B27D0772BCDE9002104BF99
:101228000134A4B2042002AA6946FFF7CFFB02A842
:10123800FFF786FE89E70023009386E74FF4807066
:10124800F1E70134A4B2CDE900214FF40070EAE7D8
:101258000134A4B2CDE900210120E4E70134A4B2AD
:10126800CDE900210820DEE70134A4B2CDE9002150
:101278000220D8E70134A4B2CDE900214FF4806000
:10128800D1E70134A4B2CDE900211020CBE700BF9B
:10129800F8FFFF3F08B52DED028BFDEEC08A9FEDEC
:1012A800187AF8EEE87AB0EE408A70EE677A67EE60
:1012B800877A17EE900A00F0C5FB41EC100B01F09D
:1012C800EBF801F03BF9FFEE007AB4EEE78AF1EEB5
:1012D80010FA024618EE901A04DDB5EEC08AF1EE57
:1012E80010FA06D4BDEC028B0648BDE80840FFF7AB
:1012F80001BFBDEC028B0448BDE80840FFF7FABE09
:101308000000C842E4280008DC28000808B50C21C1
:101318004E2000F0B7F808214E2000F0B3F81C2149
:101328004E2000F0AFF818214E20BDE8084000F02C
:10133800A9B800BF1E491F4A086B1F4B40F00400A4
:1013480010B40863106840F420401060D0684FF073
:10135800085440F4A040D06014620A6C5DF8044B55
:1013680042F002020A649A88002192B29A80596275
:101378001A8942F050021A811A8942F001021A8130
:101388001A8942F400721A811A8B42F4807242F070
:1013980001021A831A8C42F011021A841A8842F444
:1013A80000721A801A8842F001021A80704700BF42
:1013B8000038024000080240000400400F4B5A6AFF
:1013C800012A04D9596A47F6FE7291420BD90B4B90
:1013D800596A4FF6FE72914203D85A6AB2F5004F25
:1013E80006D8002070475A6A023A5A6201207047AC
:1013F8005A6A02325A624FF0FF30704700040040C8
:1014080010B51D4C1D4B226B42F0020222631A6874
:1014180022F470021A601A6842F420021A605A68AC
:1014280042F440625A605A6A22F47F425A625A6A07
:1014380042F488425A620A20FEF7C0FF236C43F444
:10144800800323640A20FEF7B9FF0D4B9A8842F007
:101458002A029A809A8B2B2142F0D2029A8319840D
:101468001A8842F001021A801A8822F48072120443
:10147800120C1A8010BD00BF003802400004024060
:10148800005800400C4B1A8842F001021A801A8852
:1014980042F480721A809A8AD207FCD580B2064A32
:1014A8001882938A9B07FCD589B2138B1182138803
:1014B80043F40073138070470058004038B5FFF7B5
:1014C80015F82048204A016B204B214C41F00801B7
:1014D8000163116821F07F411160116841F02A41D0
:1014E8001160516A41F0085141F408115162026CCF
:1014F80042F0040202641A8842F080021A80998835
:101508000022012089B2032599805A62DD62988100
:10151800198941F0570119815A639A63DA631A6489
:101528009A8A02439A821A884FF0804102431A80AD
:101538002160FEF7FBFF074B1860FEF7F7FF064B2D
:10154800186038BD00380240000C02400008004016
:1015580000E100E07C0400209004002000EB400043
:10156800430007EE903A9FED057A054BF8EEE77ACF
:1015780067EE877AC3ED017A704700BFD00F494004
:101588007C0400201A4B1B8ADB0710B527D5194CA1
:10159800FEF7CCFF2368D4ED016A9FED177AC01AD5
:1015A80007EE900A66EE876AF8EE677A86EEA77A03
:1015B800BDEEC77A84ED027AFEF7B8FF2060FEF729
:1015C800B5FF94ED016ADFED0D6A94ED037A0C4BDB
:1015D800C6EE267A186077EE877AC4ED037A044A55
:1015E800138A23F001031B041B0C138210BD00BFD8
:1015F800000800407C0400206666664000007A44CB
:101608009004002020290008000000204C0400203D
:101618004C040020B8060020384B39481A680021CD
:1016280042F001021A6099601A6822F0847222F46A
:1016380080321A6058601A6882B022F480221A60D8
:10164800D960009101911A6842F480321A601A46F2
:1016580003E0009BB3F5A06F09D0136803F40033CF
:101668000193009B01330093019B002BF1D0234B86
:101678001B6813F4003318BF01230193019B012B4E
:101688000BD0204BD3F888204FF0006142F4700251
:10169800C3F88820996002B07047184B1A491A6C31
:1016A8001A4842F080521A640A6842F480420A607A
:1016B8009A689A609A6842F400429A609A6842F47A
:1016C800A0529A6058601A6842F080721A601A68CC
:1016D8009201FCD50E49094A40F2056008609968F4
:1016E80021F003019960996841F0020199609368BB
:1016F80003F00C03082BFAD1C3E700BF00380240FF
:101708001030002400ED00E000700040085440074D
:10171800003C0240154A936803F00C03042B23D0C5
:10172800082B09D0124B114A12499268C2F30312CE
:101738008A5CD3400B617047506851685268430215
:10174800C2F3881201F03F014CBF0B4B084BB3FBAF
:10175800F1F303FB02F3054A5268C2F30142013276
:101768005200B3FBF2F3DEE7034BDCE7003802403C
:101778000024F4000800002000127A0081F00041E3
:1017880002E000BF83F0004330B54FEA41044FEA5E
:10179800430594EA050F08BF90EA020F1FBF54EAF9
:1017A800000C55EA020C7FEA645C7FEA655C00F095
:1017B800E2804FEA5454D4EB5555B8BF6D420CDD66
:1017C8002C4480EA020281EA030382EA000083EAE9
:1017D800010180EA020281EA0303362D88BF30BD89
:1017E80011F0004F4FEA01314FF4801C4CEA1131DF
:1017F80002D0404261EB410113F0004F4FEA03333E
:101808004CEA133302D0524263EB430394EA050FC8
:1018180000F0A780A4F10104D5F1200E0DDB02FA37
:101828000EFC22FA05F2801841F1000103FA0EF2CB
:10183800801843FA05F359410EE0A5F120050EF191
:10184800200E012A03FA0EFC28BF4CF0020C43FAC2
:1018580005F3C01851EBE37101F0004507D54FF0CF
:10186800000EDCF1000C7EEB00006EEB0101B1F51F
:10187800801F1BD3B1F5001F0CD349085FEA300065
:101888004FEA3C0C04F101044FEA445212F5800F70
:1018980080F09A80BCF1004F08BF5FEA500C50F10D
:1018A800000041EB045141EA050130BD5FEA4C0CF0
:1018B800404141EB010111F4801FA4F10104E9D179
:1018C80091F0000F04BF01460020B1FA81F308BF70
:1018D8002033A3F10B03B3F120020CDA0C3208DD3C
:1018E80002F1140CC2F10C0201FA0CF021FA02F117
:1018F8000CE002F11402D8BFC2F1200C01FA02F187
:1019080020FA0CFCDCBF41EA0C019040E41AA2BFAB
:1019180001EB0451294330BD6FEA04041F3C1CDA73
:101928000C340EDC04F11404C4F1200220FA04F093
:1019380001FA02F340EA030021FA04F345EA03013D
:1019480030BDC4F10C04C4F1200220FA02F001FAFF
:1019580004F340EA0300294630BD21FA04F0294681
:1019680030BD94F0000F83F4801306BF81F480111A
:101978000134013D4EE77FEA645C18BF7FEA655C8D
:1019880029D094EA050F08BF90EA020F05D054EA5F
:10199800000C04BF1946104630BD91EA030F1EBF64
:1019A8000021002030BD5FEA545C05D14000494168
:1019B80028BF41F0004130BD14F580043CBF01F55B
:1019C800801130BD01F0004545F0FE4141F4700141
:1019D8004FF0000030BD7FEA645C1ABF194610461C
:1019E8007FEA655C1CBF0B46024650EA013406BF1D
:1019F80052EA033591EA030F41F4002130BD00BFDC
:101A080090F0000F04BF0021704730B54FF4806498
:101A180004F132044FF000054FF0000150E700BF19
:101A280090F0000F04BF0021704730B54FF4806478
:101A380004F1320410F0004548BF40424FF0000165
:101A48003EE700BF42004FEAE2014FEA31014FEAA8
:101A580002701FBF12F07F4393F07F4F81F06051F7
:101A6800704732F07F4208BF704793F07F4F04BF42
:101A780041F40021704730B54FF4607401F000451F
:101A880021F000411CE700BF50EA010208BF70477F
:101A980030B54FF000050AE050EA010208BF704770
:101AA80030B511F0004502D5404261EB41014FF4D9
:101AB800806404F132045FEA915C3FF4D8AE4FF0E1
:101AC80003025FEADC0C18BF03325FEADC0C18BFC4
:101AD800033202EBDC02C2F1200300FA03FC20FA15
:101AE80002F001FA03FE40EA0E0021FA02F1144462
:101AF800BDE600BF2DE9F04F2DED028BCB4DCC4E4E
:101B0800CC4CDFF87493DFF874A39FEDCB8A83B0D5
:101B1800FFF776FCFFF79AF9FFF70CFC296BC74B28
:101B2800C74AC84841F008012963F16841F0040137
:101B3800F160696C41F48041696430260221966045
:101B480019605A6822F002025A6000268022D96081
:101B58009E600260FFF7B2FCFEF7C8FCFFF7D8F8FA
:101B68002B6B43F004032B63236823F44073236037
:101B7800236843F480732360636843F01003636051
:101B8800636943F010036361FFF7C0FB6420FEF74D
:101B980015FC05210120FFF719FAAB480096FFF75D
:101BA800A9FA40F6B830FEF709FCA0463746354694
:101BB8003446B34699F80060002E4FD0BBF1010FB0
:101BC8007AD199F800B0BBF1010F00F0E9814FF02C
:101BD800010BFEF745FB0135FFF7CAF8EDB2092DF9
:101BE8000444E7D9994BA3FB0434E408002F40F0E0
:101BF800A180A4F50063B3F5806F80F04181D8F827
:101C0800143023F01003C8F814306420FEF7D6FB14
:101C1800D8F8143043F01003C8F814306420FEF7E5
:101C2800CDFBD8F8143023F01003C8F81430642022
:101C3800FEF7C4FBD8F8143043F01003C8F814308A
:101C48006420FEF7BBFBB4F5006F40F20D8299F8F3
:101C5800006000252C460227002EAFD1FFF7AEFB0F
:101C68005844C3B2062B40F24181BBF1060F1BD08A
:101C780001210846FFF7AAF91020FFF72DFA0621DF
:101C88000120FFF7A3F97248FFF734FA0121022077
:101C9800FFF79CF91020FFF71FFA02200121FFF738
:101CA80095F96C48FFF726FA99F80060012E00F0C4
:101CB800D8824FF0060B8CE7BBF1020F00F0AD8025
:101CC800BBF1030F00F00B82BBF1040F40F07982E7
:101CD80007210120FFF77AF90520FFF7FDF95E4B90
:101CE800D3ED007AFDEEE77A0B2117EE902A01205A
:101CF800FEF704FB07210220FFF768F90420FFF72D
:101D0800EBF9564B40F6B8311868FEF715FC002879
:101D180000F07083524B1E461A680A210220FEF713
:101D2800EDFA33684FF0040B009A9A42B8BF1A468E
:101D380000924EE7022F40F07481A4F54063B3F59A
:101D4800806F80D2D8F8143023F01003C8F814300C
:101D58006420FEF733FBD8F8143043F01003C8F8BA
:101D680014306420FEF72AFBB4F5006FC0F0A88099
:101D780000252C4603271DE7012108460193FFF79C
:101D880025F91020FFF7A8F9019B304E18460121CC
:101D9800FFF71CF91020FFF79FF906210120FFF734
:101DA80015F93048FFF7A6F9BAF80020A6FB023269
:101DB800019BD20818460421FEF7A0FA019B0B21CB
:101DC8001846FFF703F92848FFF794F9019B0D21FE
:101DD8001846FFF7FBF82548FFF78CF9019B062109
:101DE8001846FFF7F3F82248FFF784F9BAF80020FD
:101DF800A6FB0236F608019B06EB8606A2EB460216
:101E0800184692B20C21FEF779FA019B0E2118466A
:101E1800FFF7DCF81748FFF76DF999F80060012E15
:101E280000F06D824FF0020BD3E600BF003802408D
:101E3800000C02400008024000000000003C014085
:101E48000038014000E100E070280008CDCCCCCC7F
:101E5800B8280008C0280008880400209004002042
:101E6800840400207C2800088428000888280008AA
:101E78008C28000890280008680400208C040020A2
:101E8800A4F54063B3F5806F2DD20325D8F814303C
:101E980023F01003C8F814306420FEF78FFAD8F83E
:101EA800143043F01003C8F814306420013DFEF7E5
:101EB80085FA15F0FF05E9D1B4F5006FBFF458AF06
:101EC800D8F8143023F01003C8F814306420FEF753
:101ED80075FAD8F8143043F01003C8F814306420A9
:101EE8000027FEF76BFA3D463C4663E6002B40F0C0
:101EF8001A81BBF1010F3FF464AE01210846FFF7D8
:101F080065F81020FFF7E8F801210220FFF75EF8D6
:101F18001020FFF7E1F806210120FFF757F8BE4827
:101F2800BE4EFFF7E7F8BAF80020A6FB0232D20847
:101F380004210220FEF7E2F902210846FFF746F8DD
:101F4800B748FFF7D7F805210220FFF73FF8B54853
:101F5800FFF7D0F806210220FFF738F8B248FFF75C
:101F6800C9F8BAF80020A6FB0236F60806EB860682
:101F7800A2EB460292B20C210220FEF7BFF90E2115
:101F88000220FFF723F8A948FFF7B4F80921022037
:101F9800FFF71CF899F800B0BBF1010F7FF417AEFA
:101FA800BAF80060FFF70AFA00EB800006EB400081
:101FB80040F2E7339842A8BF1846BAF8002020EA52
:101FC800E0739A423FF405AE03210220AAF80030DC
:101FD800FEF7FCFF0220FFF77FF8904EBAF80020CA
:101FE800A6FB0232D20804210220FEF787F90C2151
:101FF8000220FEF7EBFF5846FFF76EF8BAF800200C
:10200800A6FB0236F60806EB8606A2EB460292B25B
:102018000C210220FEF772F9BAF80000FFF79EFAC9
:10202800D7E5032F40F0F881A4F50063B3F5806F7E
:10203800BFF49AAED8F8143023F01003C8F814305F
:102048006420FEF7BBF9D8F8143043F01003C8F841
:1020580014306420013FFEF7B1F917F0FF07E9D10A
:10206800B4F5006F3FF6F3ADD8F8143023F0100341
:10207800C8F814306420FEF7A1F9D8F8143043F0FA
:102088001003C8F814306420FEF798F918E7012106
:102098000846FEF79BFF1020FFF71EF801210220DB
:1020A800FEF794FF1020FFF717F805210120FEF72F
:1020B8008DFF5F48FFF71EF8009A0C210120FEF7FC
:1020C8001DF901210220FEF781FF5A48FFF712F897
:1020D80002200C21FEF77AFF5748FFF70BF807217B
:1020E8000220FEF773FF0420FEF7F6FF534B40F67D
:1020F800B8311868FEF720FA002800F07281504BBA
:102108001E461A680A210220FEF7F8F8009A33687A
:102118009A42B8BF1A460C21012000924FF0030BD7
:10212800FEF7ECF855E59B453FF448AD012B3FF42D
:10213800E4AE022B3FF420AE032BA8D0042B08D02A
:10214800052B00F01E81062B18BF9B467FF441AD7E
:102158008EE5012108460193FEF738FF1020FEF7AF
:10216800BBFF01210220FEF731FF1020FEF7B4FF6C
:10217800019B01201946FEF729FF3248FEF7BAFFF6
:10218800314BD3ED007AFDEEE77A0B2117EE902A5A
:102198000120FEF7B3F80D210120FEF717FF2B48A9
:1021A800FEF7A8FF01210220FEF710FF2148FEF7E5
:1021B800A1FF0C210220FEF709FF1F48FEF79AFF36
:1021C80086E5BBF1050F43D109210120FEF7FEFE8C
:1021D8000320FEF781FF00220B210120FEF78EF875
:1021E80007210220FEF7F2FE0420FEF775FF134BCD
:1021F80040F6B8311868FEF79FF9002800F003810F
:102208000F4B1E461A680A210220FEF777F84FF096
:10221800050B336888E500BF7C280008CDCCCCCC02
:1022280084280008882800088C28000890280008BE
:10223800942800089C280008A4280008900400207E
:1022480084040020A028000888040020A82800088A
:10225800BBF1060F7FF4BDAC99F80060012E7FF446
:1022680028ADFFF7ABF800283FF423AD6C4B83EDA6
:10227800008A6C4B4FF0000B31460220C3F800B0C7
:1022880089F800B0FEF7A2FE1020FEF725FF042112
:102298000220FEF79BFE6448FEF72CFF4FF4FA601D
:1022A800FEF78CF831463046FEF790FE1020FEF718
:1022B80013FF31460220FEF789FE1020FEF70CFFBF
:1022C80005213046FEF782FE5848FEF713FF5A46AE
:1022D8000C213046FEF712F831460220FEF776FE52
:1022E8005348FEF707FF0C210220FEF76FFE514806
:1022F800CDF800B0FEF7FEFE4FF0030B69E4BAF824
:1023080000B0FFF75BF840F2E73358449842A8BFA3
:102318001846BAF8002020EAE0739A423FF482ADEA
:1023280003210220AAF80030FEF750FE0220FEF733
:10233800D3FEDFF814B1BAF80020ABFB0232D208A2
:1023480004210220FDF7DAFF0C210220FEF73EFEF1
:102358003046FEF7C1FEBAF80020ABFB023B4FEA5D
:10236800DB0B0BEB8B0BA2EB4B0292B20C21022086
:10237800FDF7C4FFBAF80000FFF7F0F84FF0020BC2
:1023880027E401210846FEF721FE1020FEF7A4FEEF
:1023980001210220FEF71AFE1020FEF79DFE0421FF
:1023A8000120FEF713FE2448FEF7A4FE32460B2157
:1023B8000120FDF7A3FF0D210120FEF707FE1F48AE
:1023C800FEF798FE01210220FEF700FE1848FEF7EE
:1023D80091FE0C210220FEF7F9FD1648FEF78AFE51
:1023E800F2E6174B0F4A10605862FEF79FF8154B3C
:1023F800186084E6124B0B4A10605862FEF796F894
:10240800104B186086E40E4B064A10605862FEF7BF
:102418008DF80C4B1860F3E600252C46FFF7CABB75
:102428008804002084040020D0280008942800088C
:102438009C280008A4280008AC280008B428000834
:102448000008004090040020CDCCCCCC002103E053
:102458000B4B5B58435004310A480B4B42189A42C5
:10246800F6D30A4A02E0002342F8043B084B9A429A
:10247800F9D3FFF7D1F800F075F8FFF73BFB704789
:1024880020290008000000204C0400204C040020F3
:10249800B8060020FEE7000053EC102B70B5C3F31C
:1024A8000A55A5F2FF301328194610EE104A12DC1F
:1024B80000282BDB204D05412B421E462CD04FF423
:1024C80000210141314421EA050100240B4622463E
:1024D80043EC102B70BD332805DDB0F5806F1ED09E
:1024E80043EC102B70BDA5F213454FF0FF3626FACA
:1024F80005F52A42F4D00123C0F1330003FA00F0B5
:10250800241828BFC91824EA0504DFE7013003F0BE
:1025180000410BD00024D9E7002AD0D1E0E710EE23
:10252800100AFFF731F941EC100B70BD41F07F51F3
:1025380041F440110024C9E7FFFF0F000028B8BF8D
:102548004042704708B50021044600F083F8044B68
:102558001868C36B03B19847204600F0D3F900BF51
:10256800EC28000870B50D4E0D4D761BB61006D040
:102578000024013455F8043B9847A642F9D1094E86
:10258800094D761B00F0B2F9B61006D000240134CC
:1025980055F8043B9847A642F9D170BD14290008A4
:1025A800142900081C29000814290008F0B486071B
:1025B80043D0541E002A3ED0CAB2034602E014F1AA
:1025C800FF3438D303F8012B9D07F8D1032C2BD9FE
:1025D800CDB245EA05250F2C45EA054516D9A4F1E3
:1025E80010073F0903F1200606EB071603F1100256
:1025F80042E9045542E902551032B242F8D104F0DA
:102608000F040137032C03EB07130DD91E4622468E
:10261800043A032A46F8045BFAD8221F22F0030280
:102628000432134404F003042CB1C9B21C4403F867
:10263800011B9C42FBD1F0BC704714460346C5E71A
:10264800024B13B1024800F079B87047000000004F
:10265800512700082DE9F04F354B85B00F46039000
:10266800186800F095F8334B1B68019303F5A473C1
:102678000293B946019BD3F848613EB3DDF808A040
:102688004FF001087468651E0FD4013406EB84040A
:102698000027B9F1000F20D0D4F800314B451CD0E9
:1026A800013D6B1CA4F10404F3D1234B73B1D6E9AB
:1026B8000032002A34D1002B32D03046CAF800301C
:1026C800AFF30080DAF80060002EDBD1184B1868F1
:1026D80005B0BDE8F04F00F063B873682268013BAD
:1026E800AB420CBF75602760002AD9D0D6F8881194
:1026F800D6F804B008FA05F30B4208D1904773687E
:102708005B45B7D1DAF80030B342C9D0B2E7D6F8A2
:102718008C01D4F88010034207D103989047EEE764
:10272800B2461E46002EADD1D0E708469047E6E7F0
:1027380048040020EC28000800000000002301469F
:102748001A46184600F02EB838B50A4C0A4D641BD4
:10275800A4100AD004F18043013B05EB8305013C3A
:1027680055F804399847002CF9D1BDE8384000F0F5
:10277800C3B800BF202900081C290008704700BF03
:10278800704700BF704700BF704700BF704700BF69
:10279800704700BF0120704701207047704700BF95
:1027A800704700BF2DE9F8432B4D06462868984628
:1027B8000F469146FFF7ECFF284B1C68D4F84831C8
:1027C800002B3DD05A681F2A0DDC02F1010C16BB04
:1027D8000232C3F804C0286843F82270FFF7E0FF0C
:1027E8000020BDE8F8831E4B7BB34FF4C870AFF3ED
:1027F8000080034648B3D4F848210021C0E90021ED
:102808004FF0010CC4F848010A46C0F88811C0F816
:102818008C11002EDCD003EB82010124C1F88890D2
:10282800D3F8880194402043022EC3F88801C1F8E8
:102838000881CDD1D3F88C110C43C3F88C41C7E77C
:1028480004F5A673C4F84831BCE72868FFF7A8FF69
:102858004FF0FF30C5E700BF48040020EC2800080F
:1028680000000000FEE700BF57454C4C434F4D4564
:102878000000000052414449555300005B0000002D
:102888005D000000636D00006D6D00004D41583A19
:102898000000000053504545443A00006B70680042
:1028A8006D00000054454D503A0000004300000000
:1028B80052455345543A00005055534820616E64C0
:1028C80020524F5441544500524553455420444FDB
:1028D8004E4521002D25642E2564000025642E25F3
:1028E800640000002000002000000000F8B500BFD0
:1028F800F8BC08BC9E467047F8B500BFF8BC08BCD9
:042908009E46704730
:08290C00BCD8FF7F01000000B0
:0829140049260008AD0100088E
:04291C008901000825
:1029200000000000FF0100000000000000000000A7
:102930000102030406070809007A030A20000020A8
:10294000000000000C03002074030020DC030020C2
:102950000000000000000000000000000000000077
:102960000000000000000000000000000000000067
:102970000000000000000000000000000000000057
:102980000000000000000000000000000000000047
:102990000000000000000000000000000000000037
:1029A0000000000000000000000000000000000027
:1029B0000000000000000000000000000000000017
:1029C0000000000000000000000000000000000007
:1029D00000000000000000000000000000000000F7
:1029E00000000000000000000100000000000000E6
:1029F0000E33CDAB34126DE6ECDE05000B000000AB
:102A000000000000000000000000000000000000C6
:102A100000000000000000000000000000000000B6
:102A200000000000000000000000000000000000A6
:102A30000000000000000000000000000000000096
:0C2D6000000000000000000094060020AD
:040000050800245576
:00000001FF
